:020000040800F2
:10000000680600206D0100087501000877010008EE
:10001000790100087B0100087D0100080000000054
:100020000000000000000000000000007F01000848
:10003000810100080000000083010008850100081C
:100040008701000887010008870100088701000870
:100050008701000887010008870100088701000860
:100060008701000887010008870100088701000850
:100070008701000887010008870100088701000840
:100080008701000887010008870100088701000830
:100090008701000887010008870100088701000820
:1000A0008701000887010008870100088701000810
:1000B0008701000887010008000000008701000890
:1000C0008701000800000000000000008701000810
:1000D0000000000087010008870100080000000000
:1000E00087010008870100088701000800F002F876
:1000F00000F02CF80AA090E8000C82448344AAF196
:100100000107DA4501D100F021F8AFF2090EBAE893
:100110000F0013F0010F18BFFB1A43F0010318473B
:100120004C0800005C080000002300240025002685
:10013000103A28BF78C1FBD8520728BF30C148BF4A
:100140000B6070471FB51FBD10B510BD00F031F832
:100150001146FFF7F7FF00F031FA00F04FF803B453
:10016000FFF7F2FF03BC00F057F800000948804792
:1001700009480047FEE7FEE7FEE7FEE7FEE7FEE789
:10018000FEE7FEE7FEE7FEE704480549054A064BA1
:100190007047000065050008ED00000868000020B9
:1001A000680600206802002068020020704770473F
:1001B0007047754600F02CF8AE4605006946534678
:1001C00020F00700854618B020B5FFF7DDFFBDE839
:1001D00020404FF000064FF000074FF000084FF0AE
:1001E000000BAC46ACE8C009ACE8C009ACE8C009FB
:1001F000ACE8C00921F007018D46704710B50446F0
:10020000AFF300802046BDE81040FFF7A8BF000014
:10021000004870470000002001491820ABBEFEE7EF
:1002200026000200704700008268002922F00102C7
:1002300018BF013282607047C06C80B27047000006
:1002400080B542684FF6FF63CFF6F07302EA030C05
:100250000B680A7943EA0C0343EA0222426082688F
:100260004FF2FD73CFF6F17302EA030CD1E902E21B
:100270004B7942EA0C0242EA0E0242EA43028260F1
:10028000C26A097C22F470020139C9B242EA015102
:10029000C16280BD70B586B009200121012500F042
:1002A000E9F84FF40070012100F0E4F842F2004454
:1002B000C4F201040026A4F5C05005A9ADF81450FD
:1002C0008DF8176000F05CF84FF48070ADF8040012
:1002D0004FF46020CDE902066946204600968DF86D
:1002E0001050FFF7ADFF204608210122052300F042
:1002F0000BF820460121FFF797FF2046012100F06F
:1003000035F806B070BD0000B0B501EB410C4FF000
:10031000100E092988BFACF11E0C88BF4FF00C0EDF
:1003200050F80E40072505FA0CF5AC4303FA0CF320
:100330002343062A40F80E3003D834306FF004030C
:1003400007E00C2A87BF2C306FF0400330306FF08D
:10035000220302EB820205681A441F23934025EA18
:100360000303914019430160B0BD00008268002979
:1003700022F4A00218BF02F5A002826070470000BC
:100380002DE9F041CA7802F00F0CD30644BF8B78F8
:100390004CEA030C09880B0621D0056800234FF0B6
:1003A00001084FF00F0E002608E000BF282A08BF02
:1003B00047610136082E03F104030FD008FA06F74F
:1003C0000F42F6D00EFA03F425EA04040CFA03F502
:1003D000482A45EA0405E9D10761EAE70560B1F575
:1003E000807F38BFBDE8F081446800234FF4807EF1
:1003F0004FF00F08002607E0282A08BF47610136A2
:10040000082E03F1040310D00EFA06F707EA0105DF
:10041000BD42F4D108FA03F5AC430CFA03F5482ABF
:1004200044EA0504E8D10761E9E74460BDE8F081EA
:100430001023002A08BF1423C1507047B0B500F044
:1004400025F800F04BF90021C4F2FA3100F0C2F9AE
:100450004FF0665100F0BEF940F26005C2F20005AF
:100460002968044600F0EBF80028204608BF2C60FD
:10047000B0BD0000002941F21801C4F202010A686F
:100480000CBF22EA000010430860704780B542F2BA
:100490000040C4F20100FFF7CFFE80BD80B500F040
:1004A00001F880BD82B041F204000021C4F20200D4
:1004B0000191009150F8041C41F4803140F8041C73
:1004C00050F8041C01F400310091019901310191AF
:1004D000009919B90199B1F5A06FF1D150F8041C38
:1004E000890354BF0021012100910099012936D1CF
:1004F00042F20001C4F202010A6842F010020A60EE
:100500000A6822F003020A600A6842F002020A60E6
:100510000168016001680160016841F48061016067
:10052000016821F47C110160016841F4E811016067
:1005300050F8041C41F0807140F8041C50F8041C71
:100540008901FBD5016821F003010160016841F0D8
:1005500002010160016801F00C010829FAD102B022
:100560007047000080B541F20000C4F2020001684B
:10057000002241F0010101604168CFF6FF02114005
:10058000416001684FF6FF72CFF6F66211400160DC
:10059000016821F480210160416821F4FE0141607D
:1005A0004FF41F018160FFF779FF4EF60850CEF23D
:1005B00000004FF00061016080BD000082B040F695
:1005C0000004C4F20104FFF765FE04200121FFF7D7
:1005D00051FF0420C1F20300019001A92046FFF75A
:1005E000CFFE0025C4F2F015FFF728FF294600F0E2
:1005F00018F80246002820464FF0040118BF0122D7
:10060000FFF716FFF0E710B500F034F80CBF01203B
:10061000002010BD10B500F02DF814BF01200020FF
:1006200010BD10B500F06EF88CBF0120002010BD89
:1006300010B500F067F82CBF0120002010BD10B5E8
:1006400000F094F894BF0120002010BD10B500F018
:100650008DF834BF0120002010BD401058BFC0F1FC
:100660004040491058BFC1F140418142EFF3008042
:100670007047000050EA010C00F113801CF5000FD8
:1006800058BFBCF5000F01D48842704707D710F55A
:10069000000F58BF11F5000F15D4884270478942EA
:1006A00070471CF5000F04D5BCF5000FF7D581424B
:1006B00070474FF0807C1CEB400F38BF1CEB410FA4
:1006C00001D28142704710B500F005F9922449002B
:1006D0004FF000504FF08051FFF7BFBFB0FA80F3EA
:1006E00010FA03F2C3F19D030AD0D90501EB1220E1
:1006F000530638BF704700F1010008BF20F0010029
:100700007047000050EA010C00F113801CF5000F47
:1007100058BFBCF5000F01D48842704707D710F5C9
:10072000000F58BF11F5000F15D488427047894259
:1007300070471CF5000F04D5BCF5000FF7D58142BA
:1007400070474FF0807C1CEB400F38BF1CEB410F13
:1007500001D28142704710B500F0BDF892244900E3
:100760004FF080504FF00051FFF777BF50EA010C77
:1007700000F113801CF5000F58BFBCF5000F01D429
:100780008842704707D710F5000F58BF11F5000FCA
:1007900015D488427047894270471CF5000F04D574
:1007A000BCF5000FF7D5814270474FF0807C1CEB01
:1007B000400F38BF1CEB410F01D28142704710B58A
:1007C00000F089F8922449004FF000504FF080511A
:1007D000FFF743BF4FF47F0C1CEAD0121EBF1CEA88
:1007E000D11392EA0C0F93EA0C0F00F0478090EAC5
:1007F000010F48BF42F480724FF0004C4CEA0020D9
:100800004CEA012102EB0302A0FB0113A2F5000256
:10081000002918BF43F001035B0028BF4FEA3303F0
:1008200042EB22425FEA132C4CEBC2502EBFBCEBD2
:10083000436FB2F57C0F70474FEA036CBCF1004F79
:1008400008BF20F00100B2F57C0F38BF70470BD510
:1008500082F0FF0212F5803FC8BF704700F1C04030
:10086000D8BF00F00040704700F5000C5FEA4C0C68
:1008700048BF7047B0F1C04000F073B80CEAD11324
:1008800090EA010F48BF42F48072624538BF634569
:1008900004D280EA010000F00040704710B500F07B
:1008A0001AF800BF8900013E00F007B800F009B84F
:1008B0005FEA410C5FEA1C6C08D080EA010000F09E
:1008C00050B85FEA400C5FEA1C6CF6D14FF0004074
:1008D000A0F5800070470EF1020E2EF0030E5EF8B8
:1008E000044B244204D44FEA4102B2F17F4F11D8A5
:1008F0004FEA4003B3F17F4F0CD80ED14FEAD07CC2
:100900000CEB4C0C0CF1020CB2F17F4F08BF4CEB1E
:10091000D17C04E04FF0080C01E04FEAD17C0CEBF5
:100920004C0324FA03F404F00704B4F1040C06D2D7
:100930000EEB840CBDE810404CF0010C6047DFE882
:100940000CF0070802024FF00040A0F5800010BD37
:100950000846420018BFD2F1807288BF00F0004004
:1009600010BDFF2141EAD050C00570477C09000846
:0C097000000000206806000028010008BC
:040000050800016D81
:00000001FF
