:020000040800F2
:1000000078060020A1010008A5010008A70100084A
:10001000A9010008AB010008AD01000800000000C4
:10002000000000000000000000000000AF01000818
:10003000B101000800000000B3010008B50100088C
:10004000B7010008B7010008B7010008B7010008B0
:10005000B7010008B7010008B7010008B7010008A0
:10006000B7010008B7010008B7010008B701000890
:10007000B7010008B7010008B7010008B701000880
:10008000B7010008B7010008B7010008B701000870
:10009000B7010008B7010008B7010008B701000860
:1000A000B7010008B7010008B7010008B701000850
:1000B000B7010008B701000800000000B701000800
:1000C000B70100080000000000000000B7010008B0
:1000D00000000000B7010008B701000800000000A0
:1000E000B7010008B7010008B701000800F002F8E6
:1000F00000F047F80AA090E8000C82448344AAF17B
:100100000107DA4501D100F03CF8AFF2090EBAE878
:100110000F0013F0010F18BFFB1A43F0010318473B
:100120004028000060280000103A24BF78C878C139
:10013000FAD8520724BF30C830C144BF04680C60ED
:10014000704700000023002400250026103A28BF35
:1001500078C1FBD8520728BF30C148BF0B60704739
:10016000662902F0A483002070471FB500F0D0FA82
:1001700004000020002101F089FFE0601FBD10B5E0
:1001800010BD00F0C5FB1146FFF7EFFF01F09AFB31
:1001900000F0E3FB03B4FFF7F2FF03BC00F026FC22
:1001A00008480047FEE7FEE7FEE7FEE7FEE7FEE75A
:1001B000FEE7FEE7FEE7FEE703480449044A054B75
:1001C00070470000ED00000878000020780600204D
:1001D00078020020780200200FB41CB5074B06AA55
:1001E0007B4469460090059800F079FA0020694642
:1001F00000F088FA1CBC5DF814FB0000210500002B
:100200002DE9F0410E460446002020622046E168B8
:10021000884730B3252805D0D4E901219047206ACA
:10022000401CF2E7E168204600278847050018D007
:10023000A5F14100192802D820354FF40067324655
:10024000294620462760FFF78BFF40B1012804D0E4
:10025000F61D26F007060836D8E7361DD6E72846ED
:10026000DAE7206ABDE8F08140EA0103024630B5D2
:100270009B0710D14FF0013400E008C208C91D1BD4
:100280009D4315EAC41FF8D013F0FF0102F8011BCB
:100290000DD01B0AF8E711F8013B002B02F8013BD7
:1002A00005D011F8013B002B02F8013BF3D130BD22
:1002B0007047704770472DE9FF4F0C461E464FF0C0
:1002C000FF378BB0D2E90001DDF860800A908A46E2
:1002D000C1F30A5505B93D46002108464FF000001C
:1002E000BAF1000F00F4400005DA00EB80004FF493
:1002F000400101EA50004FEA9059B9F1010F00DDC9
:10030000B9460A9850EA4A000ED044F61050A5F2B9
:10031000FF3545432F14B8F1000F1ED07542291E3A
:100320001EDDC9F100021CE0B8F1010F4FF0000022
:1003300001D0302103E0F24305E02154401CB042DB
:10034000FBDB30460022002121540B99C1F80880C4
:10035000C1E900200FB0BDE8F08FBD1B6D1CDEE7CA
:100360004A4600DA694206A800F05CFA06AB93E858
:10037000070003AB83E8070050460A9901F0A9FA89
:100380008DE80700A0F500501F3800900398002D5D
:100390000ADD42F21F014A460844002303A90390E4
:1003A000684601F013FD09E0A0F500504A461F38E9
:1003B000002303A90390684601F01DFD8DE80700A6
:1003C0000004000C03D04FF0FF30410800E010465D
:1003D000B8F1000F03D00022009215461EE0751EF2
:1003E00005D400F099F9303262556D1EF9D5B34647
:1003F0000122084302D000227F1C04E0207830282C
:1004000001D100227F1E002A099784D01DE0112D02
:1004100007DA00F081F9303262556D1C50EA0102B2
:10042000F5D1084302D00098C8B10EE00021681E43
:1004300005E0235C625C63542254401E491C8142E7
:10044000F7DBAB46A81B401E0990002004F80B0008
:100450000B98099AC0F80880C0E9002B7AE71126AA
:100460004FF0000857E72DE9F04F88460446D21DAB
:1004700022F0070191B0D1E90001CDE90A0101F0B4
:10048000F1FD02460B98C00F01D02D2007E0206837
:10049000810701D52B2002E0202101EAC000032AB8
:1004A000099001D0072A05DB03464146204600F0AB
:1004B00079F90BE12078800601D5E06900E006209B
:1004C000B8F1650F814606D0B8F1660F18D0B8F1C3
:1004D000670F70D131E00020B9F1110F009001DBFE
:1004E000112301E009F101030AAA01A90CA8FFF7F1
:1004F000E2FEDDE90C70002609F10105834647E0C4
:1005000001204B4600904FF000470AAA01A90CA811
:10051000FFF7D1FEDDE90DB00C995D46002610B95C
:1005200009F101000D18B9EB050003D4C0F1FF3645
:1005300009F10105A5EB09002BE0B9F1010F01DA82
:100540004FF001090020B9F1110F0090484601DD7C
:10055000112300E003460AAA01A90CA8FFF7ABFE8D
:10056000DDE90C704D4600268346207800070AD44A
:10057000AB4500DA5D4601A8012D04DD411911F8F3
:10058000011C302907D04F4502DA17F1040F04DAB5
:10059000012082460FE06D1EEEE7002F02DCED1B0E
:1005A0003E4403E0781CA84200DD7D1CB81B00F12E
:1005B000010A4FF000472078000703D4AA4501DB69
:1005C0004FF0FF3A0021B7F1004F0DF143088DF8CD
:1005D000431024D002202B23002F01DA7F422D2349
:1005E0000A21021EA0F1010000DC5FB197FBF1FCC3
:1005F00097FBF1F201FB1C7C17460CF1300C08F85C
:1006000001CDEEE7A8F1010003702188090501D5AD
:10061000452100E06521A0F1010800F8011C0998BE
:100620000FA9A1EB0807FF1D00B10120411901EB43
:10063000EA70A1693844081A401EA0612078C006FB
:1006400002D42046AFF30080099828B1D4E90121F3
:100650009047206A401C20622078C00622D52046A0
:10066000AFF300801EE0002E04DBB34502DD01A8DD
:10067000805D00E03020D4E901219047206A401CD1
:100680002062761CAAF101005FEA000A0AD100F09C
:100690003FF8C0680168405CD4E901219047206AB6
:1006A000401C2062281EA5F10105DCDC07E0D4E92E
:1006B000012118F8010B9047206A401C2062381E67
:1006C000A7F10107F3DC2046AFF30080032011B04F
:1006D00041E6000001694A1C02610878704700B5D4
:1006E0008FB0CDE901310021059105497944CDE96B
:1006F000031011466846FFF783FD0FB000BD0000F0
:10070000E5FFFFFF0A6802F8010B0A60704700006E
:10071000004870473000002030B5B0F10A0271F196
:1007200000034FEA900E4EEA817EB0EB0E0061EBC3
:1007300091014FEA101E4EEA017E10EB0E0041EBD4
:1007400011114FEA102E4EEA016E10EB0E0041EB34
:1007500011214FEA104E4EEA014E10EB0E0041EB14
:100760001141401841F100014FEAD00040EA4170C8
:100770004FEAD1014FEA810444EA907410EB8005FE
:1007800044EB01046D1944EB0404521BA3414FF0E8
:10079000000348BF0A3200D530BD401C41F10001C2
:1007A00030BD00002DE9F0411F46044603260168D4
:1007B000072A01F4006004DB08B116A505E016A5C0
:1007C00003E008B115A500E015A521F01000206098
:1007D000A069C01EA0610FB1401EA0612046AFF30A
:1007E00000804FB1D4E9012138469047206A401C6F
:1007F0002062C01C206206E0206AFAE7D4E90121E9
:1008000015F8010B9047761EF8D22046AFF3008012
:10081000BDE8F0814E414E006E616E00494E4600CB
:10082000696E66002DE9F047814616468AB0354864
:1008300078440DC88DE80D0032487844801C03AC24
:100840000DC884E80D0041F69B300844372190FB29
:10085000F1F290FBF1F5A5F1800501FB12041B3CC0
:1008600002D56442012000E00020DFF898A0804615
:100870000027FA44AAF1BE0A0EE0E0070AD0324689
:10088000684607EB470101230AEB810101F0B3FA47
:100890008DE8070064107F1C002CEED1194F7F44B7
:1008A000AE3F19E0E80715D007EB04100DF1180A68
:1008B00090E80E008AE80E00C068F04201D1981955
:1008C00008903246012306A903A801F094FA03AB6D
:1008D00083E807006D10641C002DE3D14FF0010385
:1008E00032466946B8F1000F03A802D001F06EFA53
:1008F00001E001F080FAC9E90001C9F808200AB056
:10090000BDE8F087FC200000004870471000002080
:100910007546FFF7F9FFAE4605006946534620F0DD
:100920000700854618B020B5FFF746FCBDE820401B
:100930004FF000064FF000074FF000084FF0000B9B
:10094000AC46ACE8C009ACE8C009ACE8C009ACE80A
:10095000C00921F007018D46704710B50446AFF37A
:1009600000802046BDE81040FFF714BC4FF0013C6A
:1009700050F8042B51F8043B9A4221D1A2EB0C030E
:10098000934313EACC1317D150F8042B51F8043BCE
:100990009A4215D1A2EB0C03934313EACC130BD16B
:1009A00050F8042B51F8043B9A4209D1A2EB0C03F6
:1009B000934313EACC13DBD04FF00000704700BF25
:1009C000D01A01BAB1FA81F101F0180122FA01F04E
:1009D000CB40DBB2C0B2C01AC1F120012CFA01F346
:1009E000D11A914311EAC311E6D170470149182089
:1009F000ABBEFEE7260002007047000082680029B7
:100A000022F0010218BF013282607047C06C80B2D0
:100A10007047000080B542684FF6FF63CFF6F07371
:100A200002EA030C0B680A7943EA0C0343EA022248
:100A3000426082684FF2FD73CFF6F17302EA030C55
:100A4000D1E902E24B7942EA0C0242EA0E0242EAA2
:100A500043028260C26A097C22F470020139C9B281
:100A600042EA0151C16280BD70B586B00920012102
:100A7000012500F083FA4FF40070012100F07EFAA6
:100A800042F20044C4F201040026A4F5C05005A9B6
:100A9000ADF814508DF8176000F0AAF84FF480708C
:100AA000ADF804004FF46020CDE902066946204607
:100AB00000968DF81050FFF7ADFF20460821012267
:100AC000052300F00BF820460121FFF797FF204691
:100AD000012100F035F806B070BD0000B0B501EBA3
:100AE000410C4FF0100E092988BFACF11E0C88BFD5
:100AF0004FF00C0E50F80E40072505FA0CF5AC43EC
:100B000003FA0CF32343062A40F80E3003D834309E
:100B10006FF0040307E00C2A87BF2C306FF040030E
:100B200030306FF0220302EB820205681A441F2363
:100B3000934025EA0303914019430160B0BD0000D2
:100B40008268002922F4A00218BF02F5A002826088
:100B500070470000B0B540F20000C2F20000046827
:100B600046F26661C3F66671204601F0DAFB4CF688
:100B7000CD410546C3F6CC51204601F04DFB002D7A
:100B800008BF4FF07E5000F087FBB0BDB0B540F21B
:100B90000000C2F2000004684CF6CD41C3F6CC510F
:100BA000204601F0A9FB4CF6CD410546CBF6CC51D1
:100BB000204601F031FB002D08BF284600F06CFBF9
:100BC000B0BD000042F20001C4F202010A6822F046
:100BD00010020A600A6810430860704742F2000180
:100BE000C4F202010A6802F038021043086070473C
:100BF0002DE9F041CA7802F00F0CD30644BF8B7880
:100C00004CEA030C09880B0621D0056800234FF03D
:100C100001084FF00F0E002608E000BF282A08BF89
:100C200047610136082E03F104030FD008FA06F7D6
:100C30000F42F6D00EFA03F425EA04040CFA03F589
:100C4000482A45EA0405E9D10761EAE70560B1F5FC
:100C5000807F38BFBDE8F081446800234FF4807E78
:100C60004FF00F08002607E0282A08BF4761013629
:100C7000082E03F1040310D00EFA06F707EA010567
:100C8000BD42F4D108FA03F5AC430CFA03F5482A47
:100C900044EA0504E8D10761E9E74460BDE8F08172
:100CA0001023002A08BF1423C150704740F270007F
:100CB000C2F2000000687047B0B500F08DFA01F094
:100CC00039FC40F20801C2F20001096801F03CFB66
:100CD00040F20C01C2F20001096801F0A7FC40F2E9
:100CE0007005C2F200052968044601F013FB0028D4
:100CF000204608BF2C60B0BD80B543F60000C4F2AA
:100D00000100202100F074FD80BD000010B540F608
:100D10000044C4F20104204604210022FFF7C0FF72
:100D2000204604210122FFF7BBFF10BD10B540F69D
:100D30000044C4F20104204604210122FFF7B0FF61
:100D4000204604210022FFF7ABFF10BD10B582B092
:100D50000820012100F012F90C2040F60044C1F2F5
:100D60000300C4F20104019001A92046FFF740FFEF
:100D70003020C1F20300009069462046FFF738FF9B
:100D800002B010BD10B540F60044C4F20104204684
:100D900010210022FFF784FF204610210022FFF7D8
:100DA0007FFF204604210022FFF77AFF204604211E
:100DB0000022FFF775FF10BD80B5FFF7A7FF00F019
:100DC00021FA40F27400C2F200007321017080BD6C
:100DD00080B5FFF7ABFF00F025FA40F27400C2F2D5
:100DE00000007721017080BD2DE9F04188B00746F1
:100DF000052001219846164600F0C0F84FF4006027
:100E0000012100F0BBF840F6000042F60044C1F6B4
:100E10000300C4F201040790A4F5105007A9FFF7DE
:100E2000E7FE20460C21012200F0DCFA20460821D2
:100E300000F03CFC40F20400C2F2000000684FF4F5
:100E40007A7507FB05F1B0FBF1F04146471E3046CD
:100E500001F032F945434FF07A700026CDF81200C8
:100E600004A92046ADF81070ADF8166000F026FC1D
:100E70007020C0F20100009020460121ADF806501C
:100E8000ADF8086000F0A4FA6946204600F0DEFBE9
:100E90002046012100F0D8FB2046012100F0B2FAE3
:100EA00008B0BDE8F0810000B0B5054642F600404C
:100EB000C4F201000C4600F0AFFA42F210702A466C
:100EC0002346FFF791FFB0BD70B582B00D4640F2EA
:100ED0007401C2F2000109788DF806102C218DF8FA
:100EE000051001F06DF942F65C16C0F600060DF132
:100EF000070402460B4620463146FFF76DF92846A7
:100F000001F05EF902460B4620463146FFF764F9D0
:100F10000DF1050520462946FFF7A6F92946FFF7FA
:100F2000A3F90DF10601FFF79FF9002100F0A2F9E6
:100F300002B070BD10B582B0FFF7B8FE01F040F905
:100F40000B4642F65C110DF107040246C0F60001A3
:100F50002046FFF741F92046002100F08BF902B04E
:100F600010BD0000002941F21001C4F202010A681C
:100F70000CBF22EA0000104308607047002941F2CC
:100F80001801C4F202010A680CBF22EA00001043F3
:100F900008607047002941F20C01C4F202010A689E
:100FA0000CBF22EA000010430860704741F20000C5
:100FB000C4F202000168002241F0010101604168B1
:100FC000CFF6FF021140416001684FF6FF72CFF685
:100FD000F66211400160016821F4802101604168DE
:100FE00021F4FE0141604FF41F0181607047000051
:100FF00010B541F20404C4F20204226802F00C02AB
:10100000082A41F20022C0F27A021CD12368D4F8E7
:1010100000C0C3F3834E5FEACC330EF1020C06D45A
:1010200040F60012C0F23D020CFB02F20BE0236816
:101030009B0302D40CFB02F205E040F60012C0F262
:101040003D020CFB02F20260226842F64C13C2F32E
:101050000312C0F600039A5C0168D1404160226827
:10106000C2F302229A5C21FA02F282602268C2F381
:10107000C2229A5C42F64813D140C1602268C0F691
:101080000003C2F381329A5CB1FBF2F1016110BD41
:101090000121B1EB501F41F20001C4F2020104D062
:1010A0004209022A14BF24312031096800F01F00D0
:1010B00021FA00F000F001007047000041F2040046
:1010C000C4F20200006800F00C00704741F2040115
:1010D000C4F202010A6822F0F0021043086070476F
:1010E00041F20001C4F202010A68B0F5803F22F427
:1010F00080320A600A6822F480220A6005D0B0F5C6
:10110000802F18BF70474FF4A0200A681043086072
:101110007047000041F20401C4F202010A6822F49F
:10112000E06210430860704741F20401C4F202011A
:101130000A6822F4605242EAC0000860704700006A
:101140006021C4F2422108607047000041F20402AD
:10115000C4F202021368084323F47C13184310609E
:101160007047000041F20401C4F202010A6822F053
:10117000030210430860704780B582B000200190E0
:101180003120FFF785FF019901F1010101910199DA
:1011900010B9B1F5A06FF3D13120FFF779FF002826
:1011A00018BF012002B080BD80B500F07BF84FF47D
:1011B000165000F0D9FAFFF757FC49F69A1249F693
:1011C0009913C9F69912C3F6C97342F21070FFF76A
:1011D0000BFEFFF7BBFD80BD80B542F20040C4F2BC
:1011E0000100FFF713FC80BD80B500BFFFF784FD51
:1011F0000028FBD043F60000C4F2010000F05AFBC7
:1012000080BD000010B540F60044C4F20104204641
:1012100010210022FFF744FD204610210122FFF794
:101220003FFD10BD10B540F60044C4F20104204655
:1012300010210122FFF734FD204610210022FFF784
:101240002FFD10BD80B5FFF771FDFFF7DBFF40F20A
:101250007400C2F200006421017080BD80B5FFF708
:10126000D1FFFFF763FD40F27400C2F2000061217C
:10127000017080BD70B50129B8BF70BD43F600058F
:101280000C46461EC4F2010516F8011F284600F060
:1012900015FB013CF8D170BD80B500F091FFFFF760
:1012A00003FE80BD80B5FFF781FE4FF48030FFF76D
:1012B00017FFFFF761FF012818BF80BD1020FFF75F
:1012C00081FC0220FFF78AFC0020FFF7FFFE0020D0
:1012D000FFF72AFF4FF48060FFF71CFF4FF48030C8
:1012E0004FF4E011FFF732FF0120FFF729FF00BFA5
:1012F0003920FFF7CDFE0028FAD00220FFF732FF99
:10130000FFF7DCFE0828FBD180BD000040F200059D
:10131000C2F20005FFF7D0FC0446FFF7EDFC012800
:10132000F8D1FFF761FFC0B22A384D28F2D8DFE8C4
:1013300000F02B302A332A2A2A2A2A2A2A2A2A2A61
:101340002A2A2A2A2A2A2A2A2A2A2A2A2A2A2A2AFD
:101350002A2A2A2A2A2A2A2A2A2A2A2A2A2A2A2AED
:101360002A2A2A2A2A2A2A2A2A362A2A392A2A2AC2
:101370003C2A2A2A2A272A2A2A2A2A3F2A2A2A4291
:10138000FFF7D8FDC6E7C5E729682046FFF79CFDB3
:10139000C0E7FFF7DFFBBDE7FFF7F8FBBAE7FFF7B2
:1013A0005DFFB7E7FFF74EFFB4E700F007F8B1E7DE
:1013B000FFF702FDAEE7FFF70BFDABE780B5FFF7E8
:1013C000E1FC40F27400C2F200006821017080BDAF
:1013D0000288002918BF012122F0800242EAC111CF
:1013E0000180704780B54FF0010CB0F820E00CFA96
:1013F00001F32EEA03030384038C02FA01F119437B
:10140000018480BD0288002918BF012122F0010259
:10141000114401807047000080B541F6FF71C4F2AD
:101420000001884228DD44F2FF31C4F20101884204
:101430003FDD44F6FF31C4F2010188426EDD44F61F
:101440000041C4F20101884200F0B48045F200017D
:10145000C4F20101884200F0B58045F20041C4F2B7
:101460000101884218BF80BD4FF400100121FFF731
:1014700091FD4FF40010D9E040F6FF71C4F2000175
:10148000884232DC40F2FF71C4F20001884259DC2C
:10149000B0F1804F00F09E8040F20041C4F20001A4
:1014A000884240F0B58002200121FFF75BFD022059
:1014B000C5E043F2FF31C4F20101884254DC42F23C
:1014C0000001C4F20001884200F08A8042F6004127
:1014D000C4F20101884240F09B804FF4006001217A
:1014E000FFF758FD4FF40060A0E041F2FF71C4F235
:1014F000000188424CDC41F20001C4F20001884244
:1015000076D041F20041C4F20001884240F0808070
:1015100020200121FFF726FD202090E044F2004129
:10152000C4F20101884269D044F60001C4F201010D
:1015300088426DD14FF480200121FFF72BFD4FF43D
:10154000802073E040F60001C4F20001884260D0C0
:1015500040F60041C4F20001884259D1082001211F
:10156000FFF700FD08206AE043F20041C4F20101E8
:10157000884254D044F20001C4F20101884247D1AC
:101580004FF480300121FFF705FD4FF480304DE02E
:1015900041F60001C4F2000188424BD041F60041FF
:1015A000C4F20001884233D180200121FFF7DAFC28
:1015B000802044E04FF400200121FFF7EBFC4FF4C2
:1015C000002033E04FF480100121FFF7E3FC4FF4DB
:1015D00080102BE001200121FFF7C4FC01202EE048
:1015E0004FF480700121FFF7BDFC4FF4807026E0BE
:1015F00010200121FFF7B6FC102020E04FF400304E
:101600000121FFF7C7FC4FF400300021FFF7C2FCB7
:1016100080BD04200121FFF7A5FC04200FE04FF45A
:1016200000500121FFF7B6FC4FF400500021FFF7F6
:10163000B1FC80BD40200121FFF794FC4020002137
:10164000FFF790FC80BD00008182704770B5028C6E
:1016500043F2004622F480520284048C8288838BF9
:10166000B1F800E00D89B1F802C0C4F20106B04241
:1016700005D042F60046C4F20106B04204D18E897C
:1016800022F4804242EA861223F4E64343EA0E2320
:1016900024F400548280838344EA0534C98844EAF0
:1016A0000C32A0F84010028470BD0000828B22F43E
:1016B000006242EA012181837047000040F6FF3357
:1016C000B0F800C0C4F2000398420FDCB0F1804FC4
:1016D0001ED040F20043C4F20003984218D040F6F6
:1016E0000003C4F20003984212D016E040F6004313
:1016F000C4F2000398420BD043F20043C4F201034A
:10170000984205D042F60043C4F20103984204D146
:101710004B882CF0700243EA020C41F2004240F484
:101720008063C4F20002934204D0CA882CF4407350
:1017300042EA030CA0F800C08A888285A0F18042AA
:10174000A2F596320B884FEAB222072A038507D802
:10175000012303FA02F212F0E50F1CBF097A018699
:10176000012181827047000070B586B004460520D3
:101770000121FFF703FC4FF480400121FFF7FEFB3E
:101780004FF4806040F60005ADF814000420C4F268
:10179000010505AE8DF8170028463146FFF728FAF7
:1017A00040F20020C1F60300059028463146FFF7BD
:1017B0001FFA019400204FF4402105F54054029097
:1017C0000391ADF8100001A9204600F017F820465B
:1017D000012100F003F806B070BD000082890029E5
:1017E00018BF012122F4005242EA41318181704741
:1017F0000088084018BF01207047000070B586B00F
:101800000446008A0D46C98820F4405008432082CF
:10181000A0894EF6F3110840A9882A896B890843EC
:1018200010431843A081A08AA98920F4407008437E
:1018300001AEA0823046FFF7DBFB43F6000106F164
:101840000800C4F201018C4208BF06F10C000068D8
:101850001922B4F90C1050432A680123B1F1FF3F5B
:10186000C8BF022302FA03F1B0FBF1F048F21F51A6
:10187000C5F2EB11A0FB01235A096FF0630302FBD1
:101880000300B4F90C300326B3F1FF3FC8BF0426B0
:1018900000FA06F000F13200A0FB01014FF0070052
:1018A000C8BF0F2000EA511040EA0210208106B0A4
:1018B00070BD000080886FF35F2070476FF35F2179
:1018C0008180704780B5FFF76FFCFFF71FFD002098
:1018D00080BD5FEA400C08BF91F0000F4FEA8C23F7
:1018E0004FEAC12243EA51514FEA1C5018BF00F59C
:1018F000F0404FEA300018BF41F000415FEA6C5CF5
:1019000000F02980BCF1FF3F08BF40F080407047E5
:10191000130C06BF12044FF0100C4FF0000C130E06
:1019200004BF12020CF1080C130F04BF12010CF1DA
:10193000040C930F04BF92000CF1020CD30F04BFF0
:1019400052000CF1010C11464FF00002A0F11F00F3
:10195000A0EB0C00704711F0004F08BF704731F04A
:1019600000413FF4D5AF0B0C06BF09044FF0100C3B
:101970004FF0000C0B0E04BF09020CF1080C0B0F0A
:1019800004BF09010CF1040C8B0F04BF89000CF19A
:10199000020CCB0F04BF49000CF1010CCCF1200369
:1019A00022FA03F341EA030102FA0CF2A0EB0C0065
:1019B00000F101007047000023F07F4720F07F4CCA
:1019C00080EA030000F00040ACEB070303F57C5312
:1019D00003F1FF032DE9804909B44FEA144324EAD7
:1019E00003484FEA154B25EA0B4E0FF2042606EB8F
:1019F00013273E7803FB0667C7F5000707FB06F6CB
:101A00004FEAD64606F102064FEA543707FB066C4A
:101A1000CCF1005C4FEA1C472CEA074C0CFB06F5A6
:101A200007FB06F404EB15464FEA961649085FEAF1
:101A3000320234BF00204FF000404FEAD13706FB9E
:101A400007FC4FEA1C4C0CFB0BF7D21B03FB0CF7FB
:101A500061EB07010CFB0EF7B0EB074072EB17428E
:101A60000CFB08F734BFA2EB0742B2EB074261EB75
:101A700017414FEA0C444FEA910706FB07FC4FEA77
:101A80001C4C0CFB0BF7B0EBC74072EB573203FB5F
:101A90000CF734BFA2EBC742B2EBC74261EB573140
:101AA0000CFB0EF7B0EBC70072EB57720CFB08F79C
:101AB00034BFA2EBC702B2EBC70261EB57714FEA2A
:101AC000816141EA92114FEA826242EA90124FEA42
:101AD000806004EBCC04039F4FEAD13706FB07FC80
:101AE0004FEA1C4C0CFB0BF7D21B03FB0CF761EB12
:101AF00007010CFB0EF7B0EB074072EB17420CFB33
:101B000008F734BFA2EB0742B2EB074261EB174183
:101B10004FEA8C5504EB9C244FEA910706FB07FC27
:101B20004FEA1C4C0CFB0BF7B0EBC74072EB573283
:101B300003FB0CF734BFA2EBC742B2EBC74261EB29
:101B400057310CFB0EF7B0EBC70072EB57720CFB72
:101B500008F734BFA2EBC702B2EBC70261EB5771C3
:101B60004FEA816141EA92114FEA826242EA9012A1
:101B70004FEA806015EB4C2544F100044FEAD13761
:101B800006FB07FC4FEA1C4C0CFB0BF7D21B03FBBC
:101B90000CF761EB07010CFB0EF7B0EB074072EBA3
:101BA00017420CFB08F734BFA2EB0742B2EB074227
:101BB00061EB17414FEA813141EA92414FEA8232AB
:101BC00042EA90424FEA80304FEA0C7615EB1C1542
:101BD00044F1000448EA03434EEA0B484FF0000E7C
:101BE000B2EB080C71EB030724BF624639464EEB9B
:101BF0000E0E4FF0000B0018524149414BEB0B0BFE
:101C0000B2EB080C71EB03077BF1000B24BF6246BB
:101C100039464EEB0E0E4FF0000B00185241494171
:101C20004BEB0B0BB2EB080C71EB03077BF1000BDA
:101C300024BF624639464EEB0E0E51EA020718BF2A
:101C400046F0010616EB0E7655F1000254F1000144
:101C500003D5BDE88901BDE80088BDE88901BDE87C
:101C60000048B619524141EB0101A3F1010370474D
:101C700080807F7E7D7C7B7A7978777676757473C9
:101C8000727171706F6E6E6D6C6C6B6A6A69686888
:101C9000676666656464636362616160605F5F5E1E
:101CA0005E5D5D5C5C5B5B5A5A5959585857575694
:101CB00056555555545453535252525151505050F9
:101CC0004F4F4F4E4E4D4D4D4C4C4C4B4B4B4A4A4B
:101CD0004A4949494848484747474746464645458F
:101CE00045444444444343434342424242414141C8
:101CF0009C46002B30D477002BD04FEA37071CB519
:101D000003B44FF010004FF01001BAF1000F06D0ED
:101D1000BCF1000FDCBF40F0080040F008014FF0BC
:101D200000000FBCBDE810400BF1010BBBF1010F2F
:101D300008BF5FEA170722BF12F1010211F101018A
:101D40004FF0004143F1000300F0004043EA00007F
:101D50007047F9D35708D0E746EA06464FEA1646D9
:101D600013F1400F1FDD13F1200FDFBF16430A46AA
:101D7000002120335B42BED0C3F1200746EA06466D
:101D80004FEA164602FA07F746EA070622FA03F276
:101D9000C3F1200701FA07F742EA070221FA03F12B
:101DA0004FF00003A7E746EA020646EA06464FEA76
:101DB000164646EA0106BCBF46EA0646360C4FF018
:101DC00000034FF000024FF0000194E72DE9804C32
:101DD00070B49A46934691E8380007C831EA400C3F
:101DE00048BF34EA430C03D5FFF7E6FDFFF780FF59
:101DF000F0BCBDE8008C2DE9804C70B49A46934647
:101E000091E8380007C810F0804F08BF13F0804FEA
:101E100003D100F005F8FFF76BFFF0BCBDE8008CC4
:101E200020F07F4723F07F4C80EA030000F0004061
:101E300007EB0C03A3F57C53A3F1FE0392F0000F14
:101E400000F0B38095F0000F00F077802DE9014994
:101E50004FEA114021EA00484FEA144624EA0647B7
:101E600000FB06FC08FB06F607FB08F818EB064823
:101E70004CEB164C00FB07F718EB07484CEB1740F0
:101E80004FEA124B22EA0B4E4FEA154625EA064767
:101E90000BFB06FC0EFB06F607FB0EFE1EEB064ECA
:101EA0004CEB164C0BFB07F71EEB074E4CEB174B9E
:101EB00018EB0B0840F1000018EB0E0B58EB000874
:101EC00040F100008F1A4FF000014FF000063CBFB8
:101ED000C943661B14BFB5EB040C00213CBFC943CA
:101EE000F61B4FEA174427EA04454FEA1C472CEA41
:101EF000074C04FB076205FB07F70CFB05F616EB26
:101F0000074642EB174204FB0CFC16EB0C4642EB77
:101F10001C421BEB060658EB020241414EEA8E0EB4
:101F200046EA9E0601D5BDE80189B619524141EB4A
:101F30000101A3F10103BDE801894FEA144524EA38
:101F400005464FEA114721EA074C05FB07F406FB5B
:101F500007F70CFB06F111EB074144EB174405FBB7
:101F60000CFC11EB0C4144EB1C444FEA124722EAF3
:101F7000074C05FB07F206FB07F70CFB06F616EB12
:101F8000074642EB174205FB0CFC16EB0C4642EBF6
:101F90001C456A1854F1000148BF7047B6195241F8
:101FA00041EB0101A3F10103704795F0000F37D019
:101FB0004FEA114221EA02464FEA144724EA074C4D
:101FC00002FB07F106FB07F70CFB06F414EB0744D2
:101FD00041EB174102FB0CFC14EB0C4441EB1C41A0
:101FE0004FEA154725EA074C02FB07F506FB07F702
:101FF0000CFB06F616EB074645EB174502FB0CFCFF
:1020000016EB0C4645EB1C42121951F1000148BF7A
:102010007047B619524141EB0101A3F1010370472A
:102020004FEA144524EA05464FEA114721EA074CD6
:1020300005FB07F106FB07F70CFB06F212EB074264
:1020400041EB174105FB0CFC12EB0C4251EB1C4120
:102050004FF0000648BF7047921841EB0101A3F111
:1020600001037047490050EAC12018BF04204A0DFF
:1020700018BF40F0010040F2FF72B2EB515F08BFA1
:1020800040F00200012808BF0520704710B5002964
:102090000AD00878002807D005487844FEF766FC87
:1020A000002801D0002010BD0248784410BD000077
:1020B000E6080000DE0800004FEA41034FEA5353F0
:1020C000A3F58063D3F11E03C8BFD3F1210C0CDD4F
:1020D0004FF0004242EAC12242EA505232FA03FC77
:1020E0008CEAE17CACEBE1707047102BC4BF0020A0
:1020F000704703F5787CBCF1FF3F04D06FF00042DD
:1021000082EA2100704770B500F005F849922480FA
:1021100000207047F2E70EF1020E2EF0030E5EF87B
:10212000046B364205D4012A43EB030515F5001F65
:1021300012D8012841EB010C1CF5001F0CD80ED160
:102140004FEAD17C0CEB4C0C0CF1020C15F5001F86
:1021500008BF4CEBD37C04E04FF0080C01E04FEAE1
:10216000D37C0CEB4C0526FA05F606F00706B6F113
:10217000040C06D20EEB860CBDE870404CF0010C4E
:102180006047DFE80CF0090B02024FF00041A1F5B7
:1021900000214FF0000070BD19461046012851EB98
:1021A000010418BFD4F5001484BF002001F00041E1
:1021B00070BD0808A0F500114FEA3101704700001A
:1021C00043004FEAD30C4FEA3C0C43401FBF40078B
:1021D0000CF1605113F0FE4F70471CF0006F03D1FB
:1021E0000CF00041002070470CF0004343EA5070AF
:1021F00040EACC0010B500F09AFA00BF000000924F
:102200004FEA0001FFF7D5BF4FF00041A1F50021D3
:102210004FF000007047000090EA010F48BF81F0C6
:10222000004100F1D682421A3CBF801A89184FEA59
:10223000D052A2EBD1534FF07F4C1CEA410F18BF94
:102240009CEA026F00F03B804FF0004C4CEA00200B
:102250004CEA012121FA03FC10EB0C0C1ED202F116
:10226000FF325FEA1C2040EBC25038BF70471CF0C1
:102270007F0F4FEA400C18BFBCF17F4F38BF70474B
:10228000C3F12003994008BF20F00100BCF17F4F4B
:1022900038BF7047A0F1C04000F08FBA4FEA3C0051
:1022A000000A40EBC25028BF1CF0FF0F4FEA400C61
:1022B000E6D018BFBCF17F4F38BF7047EAE79CEA11
:1022C000026F05D010EA5C0F08BF00F000407047B5
:1022D00010B500F02CFA00BF64FBBE3E10B500F054
:1022E000F5F80CBF0120002010BD10B500F0EEF88D
:1022F00014BF0120002010BD10B500F02FF98CBFD5
:102300000120002010BD10B500F028F92CBF0120DD
:10231000002010BD10B500F055F994BF0120002039
:1023200010BD10B500F04EF934BF0120002010BDE3
:10233000401058BFC0F14040491058BFC1F1404162
:102340008142EFF3008070474FF47F0C1CEAD012FB
:102350001EBF1CEAD11392EA0C0F93EA0C0F00F097
:10236000858090EA010F48BF42F4807240F4000C6F
:1023700041F400002CF07F4120F07F4000B5A2EB3B
:10238000030281420FF2081CACEB504E9EF800E0B5
:10239000C0F100004FEA4E0E00FB0EFC38BF4900B2
:1023A0004FEA2C1C0CFB0EF34FEACE1E0EEB635EC5
:1023B0004FEA112C0EFB0CFC4FEAC1214FEA1C53D3
:1023C00000FB031102F5FA024FEA112C0EFB0CFC84
:1023D0004FEA01314FEADC4C00FB0C1142EB224288
:1023E000C14228BF09184CEB03335DF804EB10EB36
:1023F000410143EBC250B2F57C0F38BF704729D57D
:1024000012F0F00F1CBF00F1C04000F00040704718
:10241000008182838485868788898B8C8D8E8F91BD
:102420009293959697999A9C9D9FA0A2A3A5A7A8E1
:10243000AAACAEB0B2B3B5B7B9BCBEC0C2C5C7C90D
:10244000CCCED1D4D7D9DCDFE2E6E9ECF0F3F7FA71
:10245000FE0000004FEA400C0CF1807CBCF17E4F86
:1024600028BF7047B0F1C04000F0A7B90CEAD11303
:1024700090EA010F48BF42F48072624538BF63455D
:1024800007D213F47F0F16D080EA010000F000405D
:10249000704710B500F04BF9097EFC3E00F005B81E
:1024A00080EA010000F00040704780EA010000F07F
:1024B000004000F082B912F47F0F04BF0248704759
:1024C00080EA010000F079B90000C07F50EA010CF9
:1024D00000F113801CF5000F58BFBCF5000F01D4AC
:1024E0008842704707D710F5000F58BF11F5000F4D
:1024F00015D488427047894270471CF5000F04D5F7
:10250000BCF5000FF7D5814270474FF0807C1CEB83
:10251000400F38BF1CEB410F01D28142704710B50C
:1025200000F005F9922449004FF000504FF080511F
:10253000FFF7FEBEB0FA80F310FA03F2C3F19D0379
:102540000AD0D90501EB1220530638BF704700F1BD
:10255000010008BF20F001007047000050EA010CA4
:1025600000F113801CF5000F58BFBCF5000F01D41B
:102570008842704707D710F5000F58BF11F5000FBC
:1025800015D488427047894270471CF5000F04D566
:10259000BCF5000FF7D5814270474FF0807C1CEBF3
:1025A000400F38BF1CEB410F01D28142704710B57C
:1025B00000F0BDF8922449004FF080504FF00051D8
:1025C000FFF7B6BE50EA010C00F113801CF5000FB6
:1025D00058BFBCF5000F01D48842704707D710F5EB
:1025E000000F58BF11F5000F15D48842704789427B
:1025F00070471CF5000F04D5BCF5000FF7D58142DC
:1026000070474FF0807C1CEB400F38BF1CEB410F34
:1026100001D28142704710B500F089F89224490038
:102620004FF000504FF08051FFF782BE4FF47F0C07
:102630001CEAD0121EBF1CEAD11392EA0C0F93EAD7
:102640000C0F00F0478090EA010F48BF42F48072FF
:102650004FF0004C4CEA00204CEA012102EB03024F
:10266000A0FB0113A2F50002002918BF43F00103EB
:102670005B0028BF4FEA330342EB22425FEA132C90
:102680004CEBC2502EBFBCEB436FB2F57C0F7047D2
:102690004FEA036CBCF1004F08BF20F00100B2F517
:1026A0007C0F38BF70470BD582F0FF0212F5803FD8
:1026B000C8BF704700F1C040D8BF00F0004070476D
:1026C00000F5000C5FEA4C0C48BF7047B0F1C04009
:1026D00000F073B80CEAD11390EA010F48BF42F43E
:1026E0008072624538BF634504D280EA010000F081
:1026F0000040704710B500F01AF800BF8900013E95
:1027000000F007B800F009B85FEA410C5FEA1C6C02
:1027100008D080EA010000F050B85FEA400C5FEAA0
:102720001C6CF6D14FF00040A0F5800070470EF110
:10273000020E2EF0030E5EF8044B244204D44FEA3E
:102740004102B2F17F4F11D84FEA4003B3F17F4FFE
:102750000CD80ED14FEAD07C0CEB4C0C0CF1020CD7
:10276000B2F17F4F08BF4CEBD17C04E04FF0080C76
:1027700001E04FEAD17C0CEB4C0324FA03F404F0A3
:102780000704B4F1040C06D20EEB840CBDE8104033
:102790004CF0010C6047DFE80CF0070802024FF034
:1027A0000040A0F5800010BD0846420018BFD2F1DD
:1027B000807288BF00F0004010BDFF2141EAD05078
:1027C000C005704790EA010F48BF81F000413FF516
:1027D0002AAD421A04D882F00042A0EB0200114454
:1027E0004FEAD052A2EBD1534FF07F4C1CEA410F7D
:1027F00018BF9CEA026F4AD04FF0004C4CEA002010
:102800004CEA012121FA03FCB0EB0C0C0FD412F0BE
:10281000FE0F36D05FEA4C001DD5001240EBC250CF
:1028200038BF70471CF03F0F18BF70470BE05FEADE
:102830001C20A2F1010240EBC25038BF70471CF0CF
:102840007F0F18BF7047C3F12003994014BF401E8B
:1028500020F0010070474FEA1223800808BF70473C
:10286000B0FA80FCA2EB0C02CCF1280C60FA0CF060
:1028700093EA122F04BF00EBC25070474FEAC370B7
:102880007047130A5FEADC1008BF7047F6E79CEA5E
:10289000026F04D010EA5C0F08BF0020704710B52B
:1028A000FFF745FF40DFF63E81F000407047FDF73F
:1028B000DABD000002400000000000A0000000009F
:1028C00005400000000000C8000000000C400000AF
:1028D0000000409C00000000194000000020BCBE29
:1028E0000000000034400000BFC91B8E000000043F
:1028F000B5400000504BCFD06607E2CF010000008A
:102900006C4100003E8251AADFEEA73401000000B6
:10291000D9420000DCB5A0E23A301F97FFFFFFFF6D
:10292000B4450000FD25A0C8E9A3C14FFFFFFFFF8C
:10293000FF3F00000000008000000000FF3F00009B
:1029400000000080000000000204060800000000F3
:1029500001020304010203040607080925660000BA
:102960009C29000800000020100000002801000839
:10297000AC2900081000002068060000440100088F
:102980001C00000043000000F8FFFFFF0C000000E7
:102990000E0000000F0000002E000000CDCC4C3EC9
:0C29A00000A24A042FBA6845000016434C
:04000005080001A14D
:00000001FF
