:020000040800F2
:1000000070060020A1010008A5010008A701000852
:10001000A9010008AB010008AD01000800000000C4
:10002000000000000000000000000000AF01000818
:10003000B101000800000000B3010008B50100088C
:10004000B7010008B7010008B7010008B7010008B0
:10005000B7010008B7010008B7010008B7010008A0
:10006000B7010008B7010008B7010008B701000890
:10007000B7010008B7010008B7010008B701000880
:10008000B7010008B7010008B7010008B701000870
:10009000B7010008B7010008B7010008B701000860
:1000A000B7010008B7010008B7010008B701000850
:1000B000B7010008B701000800000000B701000800
:1000C000B70100080000000000000000B7010008B0
:1000D00000000000B7010008B701000800000000A0
:1000E000B7010008B7010008B701000800F002F8E6
:1000F00000F047F80AA090E8000C82448344AAF17B
:100100000107DA4501D100F03CF8AFF2090EBAE878
:100110000F0013F0010F18BFFB1A43F0010318473B
:10012000D41B0000F41B0000103A24BF78C878C12B
:10013000FAD8520724BF30C830C144BF04680C60ED
:10014000704700000023002400250026103A28BF35
:1001500078C1FBD8520728BF30C148BF0B60704739
:10016000662901F06F85002070471FB500F0D0FAB6
:1001700004000020002101F0A9FAE0601FBD10B5C5
:1001800010BD00F0C5FB1146FFF7EFFF00F0B0FE19
:1001900000F0E3FB03B4FFF7F2FF03BC00F026FC22
:1001A00008480047FEE7FEE7FEE7FEE7FEE7FEE75A
:1001B000FEE7FEE7FEE7FEE703480449044A054B75
:1001C00070470000ED00000870000020700600205D
:1001D00070020020700200200FB41CB5074B06AA65
:1001E0007B4469460090059800F079FA0020694642
:1001F00000F088FA1CBC5DF814FB0000210500002B
:100200002DE9F0410E460446002020622046E168B8
:10021000884730B3252805D0D4E901219047206ACA
:10022000401CF2E7E168204600278847050018D007
:10023000A5F14100192802D820354FF40067324655
:10024000294620462760FFF78BFF40B1012804D0E4
:10025000F61D26F007060836D8E7361DD6E72846ED
:10026000DAE7206ABDE8F08140EA0103024630B5D2
:100270009B0710D14FF0013400E008C208C91D1BD4
:100280009D4315EAC41FF8D013F0FF0102F8011BCB
:100290000DD01B0AF8E711F8013B002B02F8013BD7
:1002A00005D011F8013B002B02F8013BF3D130BD22
:1002B0007047704770472DE9FF4F0C461E464FF0C0
:1002C000FF378BB0D2E90001DDF860800A908A46E2
:1002D000C1F30A5505B93D46002108464FF000001C
:1002E000BAF1000F00F4400005DA00EB80004FF493
:1002F000400101EA50004FEA9059B9F1010F00DDC9
:10030000B9460A9850EA4A000ED044F61050A5F2B9
:10031000FF3545432F14B8F1000F1ED07542291E3A
:100320001EDDC9F100021CE0B8F1010F4FF0000022
:1003300001D0302103E0F24305E02154401CB042DB
:10034000FBDB30460022002121540B99C1F80880C4
:10035000C1E900200FB0BDE8F08FBD1B6D1CDEE7CA
:100360004A4600DA694206A800F05CFA06AB93E858
:10037000070003AB83E8070050460A9900F0CAFD66
:100380008DE80700A0F500501F3800900398002D5D
:100390000ADD42F21F014A460844002303A90390E4
:1003A000684601F033F809E0A0F500504A461F38CE
:1003B000002303A90390684601F03DF88DE807008B
:1003C0000004000C03D04FF0FF30410800E010465D
:1003D000B8F1000F03D00022009215461EE0751EF2
:1003E00005D400F099F9303262556D1EF9D5B34647
:1003F0000122084302D000227F1C04E0207830282C
:1004000001D100227F1E002A099784D01DE0112D02
:1004100007DA00F081F9303262556D1C50EA0102B2
:10042000F5D1084302D00098C8B10EE00021681E43
:1004300005E0235C625C63542254401E491C8142E7
:10044000F7DBAB46A81B401E0990002004F80B0008
:100450000B98099AC0F80880C0E9002B7AE71126AA
:100460004FF0000857E72DE9F04F88460446D21DAB
:1004700022F0070191B0D1E90001CDE90A0101F0B4
:1004800011F902460B98C00F01D02D2007E020681B
:10049000810701D52B2002E0202101EAC000032AB8
:1004A000099001D0072A05DB03464146204600F0AB
:1004B00079F90BE12078800601D5E06900E006209B
:1004C000B8F1650F814606D0B8F1660F18D0B8F1C3
:1004D000670F70D131E00020B9F1110F009001DBFE
:1004E000112301E009F101030AAA01A90CA8FFF7F1
:1004F000E2FEDDE90C70002609F10105834647E0C4
:1005000001204B4600904FF000470AAA01A90CA811
:10051000FFF7D1FEDDE90DB00C995D46002610B95C
:1005200009F101000D18B9EB050003D4C0F1FF3645
:1005300009F10105A5EB09002BE0B9F1010F01DA82
:100540004FF001090020B9F1110F0090484601DD7C
:10055000112300E003460AAA01A90CA8FFF7ABFE8D
:10056000DDE90C704D4600268346207800070AD44A
:10057000AB4500DA5D4601A8012D04DD411911F8F3
:10058000011C302907D04F4502DA17F1040F04DAB5
:10059000012082460FE06D1EEEE7002F02DCED1B0E
:1005A0003E4403E0781CA84200DD7D1CB81B00F12E
:1005B000010A4FF000472078000703D4AA4501DB69
:1005C0004FF0FF3A0021B7F1004F0DF143088DF8CD
:1005D000431024D002202B23002F01DA7F422D2349
:1005E0000A21021EA0F1010000DC5FB197FBF1FCC3
:1005F00097FBF1F201FB1C7C17460CF1300C08F85C
:1006000001CDEEE7A8F1010003702188090501D5AD
:10061000452100E06521A0F1010800F8011C0998BE
:100620000FA9A1EB0807FF1D00B10120411901EB43
:10063000EA70A1693844081A401EA0612078C006FB
:1006400002D42046AFF30080099828B1D4E90121F3
:100650009047206A401C20622078C00622D52046A0
:10066000AFF300801EE0002E04DBB34502DD01A8DD
:10067000805D00E03020D4E901219047206A401CD1
:100680002062761CAAF101005FEA000A0AD100F09C
:100690003FF8C0680168405CD4E901219047206AB6
:1006A000401C2062281EA5F10105DCDC07E0D4E92E
:1006B000012118F8010B9047206A401C2062381E67
:1006C000A7F10107F3DC2046AFF30080032011B04F
:1006D00041E6000001694A1C02610878704700B5D4
:1006E0008FB0CDE901310021059105497944CDE96B
:1006F000031011466846FFF783FD0FB000BD0000F0
:10070000E5FFFFFF0A6802F8010B0A60704700006E
:10071000004870472800002030B5B0F10A0271F19E
:1007200000034FEA900E4EEA817EB0EB0E0061EBC3
:1007300091014FEA101E4EEA017E10EB0E0041EBD4
:1007400011114FEA102E4EEA016E10EB0E0041EB34
:1007500011214FEA104E4EEA014E10EB0E0041EB14
:100760001141401841F100014FEAD00040EA4170C8
:100770004FEAD1014FEA810444EA907410EB8005FE
:1007800044EB01046D1944EB0404521BA3414FF0E8
:10079000000348BF0A3200D530BD401C41F10001C2
:1007A00030BD00002DE9F0411F46044603260168D4
:1007B000072A01F4006004DB08B116A505E016A5C0
:1007C00003E008B115A500E015A521F01000206098
:1007D000A069C01EA0610FB1401EA0612046AFF30A
:1007E00000804FB1D4E9012138469047206A401C6F
:1007F0002062C01C206206E0206AFAE7D4E90121E9
:1008000015F8010B9047761EF8D22046AFF3008012
:10081000BDE8F0814E414E006E616E00494E4600CB
:10082000696E66002DE9F047814616468AB0354864
:1008300078440DC88DE80D0032487844801C03AC24
:100840000DC884E80D0041F69B300844372190FB29
:10085000F1F290FBF1F5A5F1800501FB12041B3CC0
:1008600002D56442012000E00020DFF898A0804615
:100870000027FA44AAF1BE0A0EE0E0070AD0324689
:10088000684607EB470101230AEB810100F0D3FD25
:100890008DE8070064107F1C002CEED1194F7F44B7
:1008A000AE3F19E0E80715D007EB04100DF1180A68
:1008B00090E80E008AE80E00C068F04201D1981955
:1008C00008903246012306A903A800F0B4FD03AB4B
:1008D00083E807006D10641C002DE3D14FF0010385
:1008E00032466946B8F1000F03A802D000F08EFD31
:1008F00001E000F0A0FDC9E90001C9F808200AB034
:10090000BDE8F08790140000004870470800002000
:100910007546FFF7F9FFAE4605006946534620F0DD
:100920000700854618B020B5FFF746FCBDE820401B
:100930004FF000064FF000074FF000084FF0000B9B
:10094000AC46ACE8C009ACE8C009ACE8C009ACE80A
:10095000C00921F007018D46704710B50446AFF37A
:1009600000802046BDE81040FFF714BC4FF0013C6A
:1009700050F8042B51F8043B9A4221D1A2EB0C030E
:10098000934313EACC1317D150F8042B51F8043BCE
:100990009A4215D1A2EB0C03934313EACC130BD16B
:1009A00050F8042B51F8043B9A4209D1A2EB0C03F6
:1009B000934313EACC13DBD04FF00000704700BF25
:1009C000D01A01BAB1FA81F101F0180122FA01F04E
:1009D000CB40DBB2C0B2C01AC1F120012CFA01F346
:1009E000D11A914311EAC311E6D170470149182089
:1009F000ABBEFEE7260002007047000082680029B7
:100A000022F0010218BF013282607047C06C80B2D0
:100A10007047000080B542684FF6FF63CFF6F07371
:100A200002EA030C0B680A7943EA0C0343EA022248
:100A3000426082684FF2FD73CFF6F17302EA030C55
:100A4000D1E902E24B7942EA0C0242EA0E0242EAA2
:100A500043028260C26A097C22F470020139C9B281
:100A600042EA0151C16280BD70B586B00920012102
:100A7000012500F023F94FF40070012100F01EF968
:100A800042F20044C4F201040026A4F5C05005A9B6
:100A9000ADF814508DF8176000F05CF84FF48070DA
:100AA000ADF804004FF46020CDE902066946204607
:100AB00000968DF81050FFF7ADFF20460821012267
:100AC000052300F00BF820460121FFF797FF204691
:100AD000012100F035F806B070BD0000B0B501EBA3
:100AE000410C4FF0100E092988BFACF11E0C88BFD5
:100AF0004FF00C0E50F80E40072505FA0CF5AC43EC
:100B000003FA0CF32343062A40F80E3003D834309E
:100B10006FF0040307E00C2A87BF2C306FF040030E
:100B200030306FF0220302EB820205681A441F2363
:100B3000934025EA0303914019430160B0BD0000D2
:100B40008268002922F4A00218BF02F5A002826088
:100B5000704700002DE9F041CA7802F00F0CD3066F
:100B600044BF8B784CEA030C09880B0621D005683A
:100B700000234FF001084FF00F0E002608E000BFE1
:100B8000282A08BF47610136082E03F104030FD05D
:100B900008FA06F70F42F6D00EFA03F425EA040429
:100BA0000CFA03F5482A45EA0405E9D10761EAE7AA
:100BB0000560B1F5807F38BFBDE8F081446800234F
:100BC0004FF4807E4FF00F08002607E0282A08BF68
:100BD00047610136082E03F1040310D00EFA06F720
:100BE00007EA0105BD42F4D108FA03F5AC430CFA5B
:100BF00003F5482A44EA0504E8D10761E9E74460BF
:100C0000BDE8F08140F26800C2F200000068704761
:100C1000B0B500F0AFF800F0CDFE40F20001C2F236
:100C20000001096800F0D0FD40F20401C2F20001A9
:100C3000096800F03BFF40F26805C2F20005296830
:100C4000044600F0A6FD0028204608BF2C60B0BD79
:100C500070B582B00D4640F26C01C2F20001097815
:100C60008DF806102C218DF8051000F04BFD41F693
:100C7000F046C0F600060DF1070402460B4620467A
:100C80003146FFF7A9FA284600F03CFD02460B4624
:100C900020463146FFF7A0FA0DF10505204629460A
:100CA000FFF7E2FA2946FFF7DFFA0DF10601FFF739
:100CB000DBFA002100F066F802B070BD002941F2B5
:100CC0001801C4F202010A680CBF22EA00001043B6
:100CD0000860704710B541F20404C4F202042268AF
:100CE00002F00C02082A41F20022C0F27A021CD162
:100CF0002368D4F800C0C3F3834E5FEACC330EF10F
:100D0000020C06D440F60012C0F23D020CFB02F2C7
:100D10000BE023689B0302D40CFB02F205E040F6D3
:100D20000012C0F23D020CFB02F20260226841F6A2
:100D3000E043C2F30312C0F600039A5C0168D1409D
:100D400041602268C2F302229A5C21FA02F28260B8
:100D50002268C2F3C2229A5C41F6DC43D140C160F2
:100D60002268C0F60003C2F381329A5CB1FBF2F153
:100D7000016110BD80B542F20040C4F20100FFF7EE
:100D800045FE80BD70B50129B8BF70BD43F60005B2
:100D90000C46461EC4F2010516F8011F284600F055
:100DA000A3F8013CF8D170BD70B586B004460520AB
:100DB0000121FFF783FF4FF480400121FFF77EFF01
:100DC0004FF4806040F60005ADF814000420C4F232
:100DD000010505AE8DF8170028463146FFF7BAFE2B
:100DE00040F20020C1F60300059028463146FFF787
:100DF000B1FE019400204FF4402105F540540290CB
:100E00000391ADF8100001A9204600F011F820462A
:100E1000012100F003F806B070BD000082890029AE
:100E200018BF012122F4005242EA4131818170470A
:100E300070B586B00446008A0D46C98820F440503B
:100E400008432082A0894EF6F3110840A9882A8918
:100E50006B89084310431843A081A08AA98920F414
:100E60004070084301AEA0823046FFF733FF43F6DF
:100E7000000106F10800C4F201018C4208BF06F12E
:100E80000C0000681922B4F90C1050432A680123A1
:100E9000B1F1FF3FC8BF022302FA03F1B0FBF1F04A
:100EA00048F21F51C5F2EB11A0FB01235A096FF064
:100EB000630302FB0300B4F90C300326B3F1FF3FD8
:100EC000C8BF042600FA06F000F13200A0FB0101C1
:100ED0004FF00700C8BF0F2000EA511040EA02108F
:100EE000208106B070BD00006FF35F2181807047E4
:100EF00000F000F8FFF7B8FD4FF41650FFF754FF6D
:100F0000FFF786FE0446FFF77DFE01462046FFF709
:100F10009FFEF5E75FEA400C08BF91F0000F4FEA33
:100F20008C234FEAC12243EA51514FEA1C5018BFAB
:100F300000F5F0404FEA300018BF41F000415FEA91
:100F40006C5C00F02980BCF1FF3F08BF40F080409E
:100F50007047130C06BF12044FF0100C4FF0000C3A
:100F6000130E04BF12020CF1080C130F04BF120180
:100F70000CF1040C930F04BF92000CF1020CD30F80
:100F800004BF52000CF1010C11464FF00002A0F119
:100F90001F00A0EB0C00704711F0004F08BF704716
:100FA00031F000413FF4D5AF0B0C06BF09044FF000
:100FB000100C4FF0000C0B0E04BF09020CF1080CD2
:100FC0000B0F04BF09010CF1040C8B0F04BF890047
:100FD0000CF1020CCB0F04BF49000CF1010CCCF159
:100FE000200322FA03F341EA030102FA0CF2A0EB18
:100FF0000C0000F10100704723F07F4720F07F4C88
:1010000080EA030000F00040ACEB070303F57C53DB
:1010100003F1FF032DE9804909B44FEA144324EAA0
:1010200003484FEA154B25EA0B4E0FF2042606EB58
:1010300013273E7803FB0667C7F5000707FB06F694
:101040004FEAD64606F102064FEA543707FB066C14
:10105000CCF1005C4FEA1C472CEA074C0CFB06F570
:1010600007FB06F404EB15464FEA961649085FEABB
:10107000320234BF00204FF000404FEAD13706FB68
:1010800007FC4FEA1C4C0CFB0BF7D21B03FB0CF7C5
:1010900061EB07010CFB0EF7B0EB074072EB174258
:1010A0000CFB08F734BFA2EB0742B2EB074261EB3F
:1010B00017414FEA0C444FEA910706FB07FC4FEA41
:1010C0001C4C0CFB0BF7B0EBC74072EB573203FB29
:1010D0000CF734BFA2EBC742B2EBC74261EB57310A
:1010E0000CFB0EF7B0EBC70072EB57720CFB08F766
:1010F00034BFA2EBC702B2EBC70261EB57714FEAF4
:10110000816141EA92114FEA826242EA90124FEA0B
:10111000806004EBCC04039F4FEAD13706FB07FC49
:101120004FEA1C4C0CFB0BF7D21B03FB0CF761EBDB
:1011300007010CFB0EF7B0EB074072EB17420CFBFC
:1011400008F734BFA2EB0742B2EB074261EB17414D
:101150004FEA8C5504EB9C244FEA910706FB07FCF1
:101160004FEA1C4C0CFB0BF7B0EBC74072EB57324D
:1011700003FB0CF734BFA2EBC742B2EBC74261EBF3
:1011800057310CFB0EF7B0EBC70072EB57720CFB3C
:1011900008F734BFA2EBC702B2EBC70261EB57718D
:1011A0004FEA816141EA92114FEA826242EA90126B
:1011B0004FEA806015EB4C2544F100044FEAD1372B
:1011C00006FB07FC4FEA1C4C0CFB0BF7D21B03FB86
:1011D0000CF761EB07010CFB0EF7B0EB074072EB6D
:1011E00017420CFB08F734BFA2EB0742B2EB0742F1
:1011F00061EB17414FEA813141EA92414FEA823275
:1012000042EA90424FEA80304FEA0C7615EB1C150B
:1012100044F1000448EA03434EEA0B484FF0000E45
:10122000B2EB080C71EB030724BF624639464EEB64
:101230000E0E4FF0000B0018524149414BEB0B0BC7
:10124000B2EB080C71EB03077BF1000B24BF624685
:1012500039464EEB0E0E4FF0000B0018524149413B
:101260004BEB0B0BB2EB080C71EB03077BF1000BA4
:1012700024BF624639464EEB0E0E51EA020718BFF4
:1012800046F0010616EB0E7655F1000254F100010E
:1012900003D5BDE88901BDE80088BDE88901BDE846
:1012A0000048B619524141EB0101A3F10103704717
:1012B00080807F7E7D7C7B7A797877767675747393
:1012C000727171706F6E6E6D6C6C6B6A6A69686852
:1012D000676666656464636362616160605F5F5EE8
:1012E0005E5D5D5C5C5B5B5A5A595958585757565E
:1012F00056555555545453535252525151505050C3
:101300004F4F4F4E4E4D4D4D4C4C4C4B4B4B4A4A14
:101310004A49494948484847474747464646454558
:101320004544444444434343434242424241414191
:101330009C46002B30D477002BD04FEA37071CB5E2
:1013400003B44FF010004FF01001BAF1000F06D0B7
:10135000BCF1000FDCBF40F0080040F008014FF086
:1013600000000FBCBDE810400BF1010BBBF1010FF9
:1013700008BF5FEA170722BF12F1010211F1010154
:101380004FF0004143F1000300F0004043EA000049
:101390007047F9D35708D0E746EA06464FEA1646A3
:1013A00013F1400F1FDD13F1200FDFBF16430A4674
:1013B000002120335B42BED0C3F1200746EA064637
:1013C0004FEA164602FA07F746EA070622FA03F240
:1013D000C3F1200701FA07F742EA070221FA03F1F5
:1013E0004FF00003A7E746EA020646EA06464FEA40
:1013F000164646EA0106BCBF46EA0646360C4FF0E2
:1014000000034FF000024FF0000194E72DE9804CFB
:1014100070B49A46934691E8380007C831EA400C08
:1014200048BF34EA430C03D5FFF7E6FDFFF780FF22
:10143000F0BCBDE8008C2DE9804C70B49A46934610
:1014400091E8380007C810F0804F08BF13F0804FB4
:1014500003D100F005F8FFF76BFFF0BCBDE8008C8E
:1014600020F07F4723F07F4C80EA030000F000402B
:1014700007EB0C03A3F57C53A3F1FE0392F0000FDE
:1014800000F0B38095F0000F00F077802DE901495E
:101490004FEA114021EA00484FEA144624EA064781
:1014A00000FB06FC08FB06F607FB08F818EB0648ED
:1014B0004CEB164C00FB07F718EB07484CEB1740BA
:1014C0004FEA124B22EA0B4E4FEA154625EA064731
:1014D0000BFB06FC0EFB06F607FB0EFE1EEB064E94
:1014E0004CEB164C0BFB07F71EEB074E4CEB174B68
:1014F00018EB0B0840F1000018EB0E0B58EB00083E
:1015000040F100008F1A4FF000014FF000063CBF81
:10151000C943661B14BFB5EB040C00213CBFC94393
:10152000F61B4FEA174427EA04454FEA1C472CEA0A
:10153000074C04FB076205FB07F70CFB05F616EBEF
:10154000074642EB174204FB0CFC16EB0C4642EB41
:101550001C421BEB060658EB020241414EEA8E0E7E
:1015600046EA9E0601D5BDE80189B619524141EB14
:101570000101A3F10103BDE801894FEA144524EA02
:1015800005464FEA114721EA074C05FB07F406FB25
:1015900007F70CFB06F111EB074144EB174405FB81
:1015A0000CFC11EB0C4144EB1C444FEA124722EABD
:1015B000074C05FB07F206FB07F70CFB06F616EBDC
:1015C000074642EB174205FB0CFC16EB0C4642EBC0
:1015D0001C456A1854F1000148BF7047B6195241C2
:1015E00041EB0101A3F10103704795F0000F37D0E3
:1015F0004FEA114221EA02464FEA144724EA074C17
:1016000002FB07F106FB07F70CFB06F414EB07449B
:1016100041EB174102FB0CFC14EB0C4441EB1C4169
:101620004FEA154725EA074C02FB07F506FB07F7CB
:101630000CFB06F616EB074645EB174502FB0CFCC8
:1016400016EB0C4645EB1C42121951F1000148BF44
:101650007047B619524141EB0101A3F101037047F4
:101660004FEA144524EA05464FEA114721EA074CA0
:1016700005FB07F106FB07F70CFB06F212EB07422E
:1016800041EB174105FB0CFC12EB0C4251EB1C41EA
:101690004FF0000648BF7047921841EB0101A3F1DB
:1016A00001037047490050EAC12018BF04204A0DC9
:1016B00018BF40F0010040F2FF72B2EB515F08BF6B
:1016C00040F00200012808BF0520704710B500292E
:1016D0000AD00878002807D005487844FFF746F973
:1016E000002801D0002010BD0248784410BD000041
:1016F0003A060000320600000808A0F500114FEA83
:101700003101704743004FEAD30C4FEA3C0C434091
:101710001FBF40070CF1605113F0FE4F70471CF0E3
:10172000006F03D10CF00041002070470CF0004323
:1017300043EA507040EACC0010B500F038FA00BF20
:10174000000000924FEA0001FFF7D6BF4FF00041C2
:10175000A1F500214FF00000704710B500F0F6F839
:101760000CBF0120002010BD10B500F0EFF814BF31
:101770000120002010BD10B500F030F98CBF012011
:10178000002010BD10B500F029F92CBF0120002069
:1017900010BD10B500F056F994BF0120002010BD17
:1017A00010B500F04FF934BF0120002010BD4010EB
:1017B00058BFC0F14040491058BFC1F1404181427B
:1017C000EFF30080704700004FF47F0C1CEAD0124A
:1017D0001EBF1CEAD11392EA0C0F93EA0C0F00F023
:1017E000858090EA010F48BF42F4807240F4000CFB
:1017F00041F400002CF07F4120F07F4000B5A2EBC7
:10180000030281420FF2081CACEB504E9EF800E040
:10181000C0F100004FEA4E0E00FB0EFC38BF49003D
:101820004FEA2C1C0CFB0EF34FEACE1E0EEB635E50
:101830004FEA112C0EFB0CFC4FEAC1214FEA1C535E
:1018400000FB031102F5FA024FEA112C0EFB0CFC0F
:101850004FEA01314FEADC4C00FB0C1142EB224213
:10186000C14228BF09184CEB03335DF804EB10EBC1
:10187000410143EBC250B2F57C0F38BF704729D508
:1018800012F0F00F1CBF00F1C04000F000407047A4
:10189000008182838485868788898B8C8D8E8F9149
:1018A0009293959697999A9C9D9FA0A2A3A5A7A86D
:1018B000AAACAEB0B2B3B5B7B9BCBEC0C2C5C7C999
:1018C000CCCED1D4D7D9DCDFE2E6E9ECF0F3F7FAFD
:1018D000FE0000004FEA400C0CF1807CBCF17E4F12
:1018E00028BF7047B0F1C04000F0A7B90CEAD1138F
:1018F00090EA010F48BF42F48072624538BF6345E9
:1019000007D213F47F0F16D080EA010000F00040E8
:10191000704710B500F04BF9097EFC3E00F005B8A9
:1019200080EA010000F00040704780EA010000F00A
:10193000004000F082B912F47F0F04BF02487047E4
:1019400080EA010000F079B90000C07F50EA010C84
:1019500000F113801CF5000F58BFBCF5000F01D437
:101960008842704707D710F5000F58BF11F5000FD8
:1019700015D488427047894270471CF5000F04D582
:10198000BCF5000FF7D5814270474FF0807C1CEB0F
:10199000400F38BF1CEB410F01D28142704710B598
:1019A00000F005F9922449004FF000504FF08051AB
:1019B000FFF7FDBEB0FA80F310FA03F2C3F19D0306
:1019C0000AD0D90501EB1220530638BF704700F149
:1019D000010008BF20F001007047000050EA010C30
:1019E00000F113801CF5000F58BFBCF5000F01D4A7
:1019F0008842704707D710F5000F58BF11F5000F48
:101A000015D488427047894270471CF5000F04D5F1
:101A1000BCF5000FF7D5814270474FF0807C1CEB7E
:101A2000400F38BF1CEB410F01D28142704710B507
:101A300000F0BDF8922449004FF080504FF0005163
:101A4000FFF7B5BE50EA010C00F113801CF5000F42
:101A500058BFBCF5000F01D48842704707D710F576
:101A6000000F58BF11F5000F15D488427047894206
:101A700070471CF5000F04D5BCF5000FF7D5814267
:101A800070474FF0807C1CEB400F38BF1CEB410FC0
:101A900001D28142704710B500F089F892244900C4
:101AA0004FF000504FF08051FFF781BE4FF47F0C94
:101AB0001CEAD0121EBF1CEAD11392EA0C0F93EA63
:101AC0000C0F00F0478090EA010F48BF42F480728B
:101AD0004FF0004C4CEA00204CEA012102EB0302DB
:101AE000A0FB0113A2F50002002918BF43F0010377
:101AF0005B0028BF4FEA330342EB22425FEA132C1C
:101B00004CEBC2502EBFBCEB436FB2F57C0F70475D
:101B10004FEA036CBCF1004F08BF20F00100B2F5A2
:101B20007C0F38BF70470BD582F0FF0212F5803F63
:101B3000C8BF704700F1C040D8BF00F000407047F8
:101B400000F5000C5FEA4C0C48BF7047B0F1C04094
:101B500000F073B80CEAD11390EA010F48BF42F4C9
:101B60008072624538BF634504D280EA010000F00C
:101B70000040704710B500F01AF800BF8900013E20
:101B800000F007B800F009B85FEA410C5FEA1C6C8E
:101B900008D080EA010000F050B85FEA400C5FEA2C
:101BA0001C6CF6D14FF00040A0F5800070470EF19C
:101BB000020E2EF0030E5EF8044B244204D44FEACA
:101BC0004102B2F17F4F11D84FEA4003B3F17F4F8A
:101BD0000CD80ED14FEAD07C0CEB4C0C0CF1020C63
:101BE000B2F17F4F08BF4CEBD17C04E04FF0080C02
:101BF00001E04FEAD17C0CEB4C0324FA03F404F02F
:101C00000704B4F1040C06D20EEB840CBDE81040BE
:101C10004CF0010C6047DFE80CF0070802024FF0BF
:101C20000040A0F5800010BD0846420018BFD2F168
:101C3000807288BF00F0004010BDFF2141EAD05003
:101C4000C0057047FEF70FBC02400000000000A076
:101C50000000000005400000000000C80000000077
:101C60000C4000000000409C0000000019400000F3
:101C70000020BCBE0000000034400000BFC91B8E25
:101C800000000004B5400000504BCFD06607E2CF03
:101C9000010000006C4100003E8251AADFEEA73433
:101CA00001000000D9420000DCB5A0E23A301F97E5
:101CB000FFFFFFFFB4450000FD25A0C8E9A3C14F09
:101CC000FFFFFFFFFF3F000000000080000000005A
:101CD000FF3F000000000080000000000204060832
:101CE00000000000010203040102030406070809C2
:101CF00025660000301D00080000002008000000DC
:101D000028010008381D00080800002068060000AF
:101D1000440100081C00000043000000F8FFFFFF22
:101D20000C0000000E0000000F0000002E0000005C
:081D30002FBA684500001643BC
:04000005080001A14D
:00000001FF
