:020000040800F2
:10000000680600208901000891010008930100089A
:100010009501000897010008990100080000000000
:100020000000000000000000000000009B0100082C
:100030009D010008000000009F010008A1010008C8
:10004000A3010008A3010008A3010008A301000800
:10005000A3010008A3010008A3010008A3010008F0
:10006000A3010008A3010008A3010008A3010008E0
:10007000A3010008A3010008A3010008A3010008D0
:10008000A3010008A3010008A3010008A3010008C0
:10009000A3010008A3010008A3010008A3010008B0
:1000A000A3010008A3010008A3010008A3010008A0
:1000B000A3010008A301000800000000A30100083C
:1000C000A30100080000000000000000A3010008D8
:1000D00000000000A3010008A301000800000000C8
:1000E000A3010008A3010008A301000800F002F822
:1000F00000F03AF80AA090E8000C82448344AAF188
:100100000107DA4501D100F02FF8AFF2090EBAE885
:100110000F0013F0010F18BFFB1A43F0010318473B
:100120004804000068040000103A24BF78C878C171
:10013000FAD8520724BF30C830C144BF04680C60ED
:10014000704700000023002400250026103A28BF35
:1001500078C1FBD8520728BF30C148BF0B60704739
:100160001FB51FBD10B510BD00F031F81146FFF7E7
:10017000F7FF00F0EDF900F04FF803B4FFF7F2FFDE
:1001800003BC00F057F800000948804709480047C1
:10019000FEE7FEE7FEE7FEE7FEE7FEE7FEE7FEE737
:1001A000FEE7FEE704480549054A064B7047000094
:1001B000F9040008ED00000868000020680600202F
:1001C000680200206802002070477047704775463B
:1001D00000F02CF8AE4605006946534620F00700B3
:1001E000854618B020B5FFF7DDFFBDE820404FF091
:1001F00000064FF000074FF000084FF0000BAC4630
:10020000ACE8C009ACE8C009ACE8C009ACE8C0097A
:1002100021F007018D46704710B50446AFF300800A
:100220002046BDE81040FFF7A8BF00000048704717
:100230000800002001491820ABBEFEE7260002009E
:10024000704700002DE9F041CA7802F00F0CD30688
:1002500044BF8B784CEA030C09880B0621D0056853
:1002600000234FF001084FF00F0E002608E000BFFA
:10027000282A08BF47610136082E03F104030FD076
:1002800008FA06F70F42F6D00EFA03F425EA040442
:100290000CFA03F5482A45EA0405E9D10761EAE7C3
:1002A0000560B1F5807F38BFBDE8F0814468002368
:1002B0004FF4807E4FF00F08002607E0282A08BF81
:1002C00047610136082E03F1040310D00EFA06F739
:1002D00007EA0105BD42F4D108FA03F5AC430CFA74
:1002E00003F5482A44EA0504E8D10761E9E74460D8
:1002F000BDE8F0811023002A08BF1423C1507047C5
:1003000010B540F60044C4F2010420460421002246
:10031000FFF7F0FF204608210122FFF7EBFF10BD99
:1003200010B540F60044C4F2010420460421012225
:10033000FFF7E0FF204608210022FFF7DBFF10BD9A
:1003400010B582B00820012100F02EF80C2040F6F4
:100350000044C1F20300C4F20104019001A9204647
:10036000FFF770FF3020C1F203000090694620467D
:10037000FFF768FF02B010BD80B5FFF7C1FF00F0C6
:100380001FF840F20000C2F200007321017080BD2E
:1003900080B5FFF7C5FF00F023F840F20000C2F27D
:1003A00000007721017080BD002941F21801C4F2DC
:1003B00002010A680CBF22EA00001043086070477F
:1003C00010B540F60044C4F201042046102100227A
:1003D000FFF790FF204620210122FFF78BFF10BD81
:1003E00010B540F60044C4F2010420461021012259
:1003F000FFF780FF204620210022FFF77BFF10BD82
:1004000080B5FFF78DFFFFF7DBFF40F20000C2F27F
:1004100000006421017080BD80B5FFF7D1FFFFF7B8
:100420007FFF40F20000C2F200006121017080BD38
:1004300080B500F001F880BD82B041F204000021D7
:10044000C4F202000191009150F8041C41F4803183
:1004500040F8041C50F8041C01F40031009101998B
:1004600001310191009919B90199B1F5A06FF1D14C
:1004700050F8041C890354BF002101210091009908
:10048000012936D142F20001C4F202010A6842F0A9
:1004900010020A600A6822F003020A600A6842F049
:1004A00002020A600168016001680160016841F4AC
:1004B00080610160016821F47C110160016841F4F0
:1004C000E811016050F8041C41F0807140F8041CF0
:1004D00050F8041C8901FBD5016821F0030101607B
:1004E000016841F002010160016801F00C01082976
:1004F000FAD102B07047000080B541F20000C4F2AA
:1005000002000168002241F0010101604168CFF65C
:10051000FF021140416001684FF6FF72CFF6F662AC
:1005200011400160016821F480210160416821F4DB
:10053000FE0141604FF41F018160FFF779FF4EF625
:100540000850CEF200004FF00061016080BD000055
:10055000FFF7F6FEFFF71CFFFFF752FFFFF70CFF58
:10056000FFF75AFFF6E700008805000800000020AA
:1005700004000000280100088C0500080800002085
:0C05800060060000440100086800000054
:040000050800018965
:00000001FF
