:020000040800F2
:10000000680600208901000891010008930100089A
:100010009501000897010008990100080000000000
:100020000000000000000000000000009B0100082C
:100030009D010008000000009F010008A1010008C8
:10004000A3010008A3010008A3010008A301000800
:10005000A3010008A3010008A3010008A3010008F0
:10006000A3010008A3010008A3010008A3010008E0
:10007000A3010008A3010008A3010008A3010008D0
:10008000A3010008A3010008A3010008A3010008C0
:10009000A3010008A3010008A3010008A3010008B0
:1000A000A3010008A3010008A3010008A3010008A0
:1000B000A3010008A301000800000000A30100083C
:1000C000A30100080000000000000000A3010008D8
:1000D00000000000A3010008A301000800000000C8
:1000E000A3010008A3010008A301000800F002F822
:1000F00000F03AF80AA090E8000C82448344AAF188
:100100000107DA4501D100F02FF8AFF2090EBAE885
:100110000F0013F0010F18BFFB1A43F0010318473B
:100120005006000070060000103A24BF78C878C15D
:10013000FAD8520724BF30C830C144BF04680C60ED
:10014000704700000023002400250026103A28BF35
:1001500078C1FBD8520728BF30C148BF0B60704739
:100160001FB51FBD10B510BD00F031F81146FFF7E7
:10017000F7FF00F06FFA00F04FF803B4FFF7F2FF5B
:1001800003BC00F057F800000948804709480047C1
:10019000FEE7FEE7FEE7FEE7FEE7FEE7FEE7FEE737
:1001A000FEE7FEE704480549054A064B7047000094
:1001B00095040008ED000008680000206806002093
:1001C000680200206802002070477047704775463B
:1001D00000F02CF8AE4605006946534620F00700B3
:1001E000854618B020B5FFF7DDFFBDE820404FF091
:1001F00000064FF000074FF000084FF0000BAC4630
:10020000ACE8C009ACE8C009ACE8C009ACE8C0097A
:1002100021F007018D46704710B50446AFF300800A
:100220002046BDE81040FFF7A8BF00000048704717
:100230000800002001491820ABBEFEE7260002009E
:10024000704700002DE9F041CA7802F00F0CD30688
:1002500044BF8B784CEA030C09880B0621D0056853
:1002600000234FF001084FF00F0E002608E000BFFA
:10027000282A08BF47610136082E03F104030FD076
:1002800008FA06F70F42F6D00EFA03F425EA040442
:100290000CFA03F5482A45EA0405E9D10761EAE7C3
:1002A0000560B1F5807F38BFBDE8F0814468002368
:1002B0004FF4807E4FF00F08002607E0282A08BF81
:1002C00047610136082E03F1040310D00EFA06F739
:1002D00007EA0105BD42F4D108FA03F5AC430CFA74
:1002E00003F5482A44EA0504E8D10761E9E74460D8
:1002F000BDE8F0812DE9F04188B0074605200121D5
:100300009846164600F056F84FF40060012100F0C0
:1003100051F840F6000042F60044C1F60300C4F272
:1003200001040790A4F5105007A9FFF78BFF2046A2
:100330000C21012200F0E4F82046082100F02CF9FD
:1003400040F20000C2F2000000684FF47A7507FB2B
:1003500005F1B0FBF1F04146471E304600F08AF946
:1003600045434FF07A700026CDF8120004A92046CC
:10037000ADF81070ADF8166000F016F97020C0F2FC
:100380000100009020460121ADF80650ADF808604C
:1003900000F0ACF86946204600F0CEF82046012176
:1003A00000F0C8F82046012100F0BAF808B0BDE816
:1003B000F0810000002941F21801C4F202010A682C
:1003C0000CBF22EA000010430860704780B500F0BF
:1003D00001F880BD82B041F204000021C4F20200A5
:1003E0000191009150F8041C41F4803140F8041C44
:1003F00050F8041C01F40031009101990131019180
:10040000009919B90199B1F5A06FF1D150F8041C08
:10041000890354BF0021012100910099012936D19F
:1004200042F20001C4F202010A6842F010020A60BE
:100430000A6822F003020A600A6842F002020A60B7
:100440000168016001680160016841F48061016038
:10045000016821F47C110160016841F4E811016038
:1004600050F8041C41F0807140F8041C50F8041C42
:100470008901FBD5016821F003010160016841F0A9
:1004800002010160016801F00C010829FAD102B0F3
:100490007047000080B541F20000C4F2020001681C
:1004A000002241F0010101604168CFF6FF021140D6
:1004B000416001684FF6FF72CFF6F66211400160AD
:1004C000016821F480210160416821F4FE0141604E
:1004D0004FF41F018160FFF779FF4EF60850CEF20E
:1004E00000004FF00061016080BD0000028800291B
:1004F00018BF012122F0800242EAC1110180704739
:1005000080B54FF0010CB0F820E00CFA01F32EEAB0
:1005100003030384038C02FA01F11943018480BDB3
:100520000288002918BF012122F001021144018034
:10053000704700008182704770B5028C43F200461C
:1005400022F480520284048C8288838BB1F800E00C
:100550000D89B1F802C0C4F20106B04205D042F6DE
:100560000046C4F20106B04204D18E8922F48042D2
:1005700042EA861223F4E64343EA0E2324F40054AD
:100580008280838344EA0534C98844EA0C32A0F8A7
:100590004010028470BD0000828B22F4006242EAA7
:1005A000012181837047000040F6FF33B0F800C09E
:1005B000C4F2000398420FDCB0F1804F1ED040F22D
:1005C0000043C4F20003984218D040F60003C4F27E
:1005D0000003984212D016E040F60043C4F2000334
:1005E00098420BD043F20043C4F20103984205D075
:1005F00042F60043C4F20103984204D14B882CF028
:10060000700243EA020C41F2004240F48063C4F2FB
:100610000002934204D0CA882CF4407342EA030CCF
:10062000A0F800C08A888285A0F18042A2F59632A7
:100630000B884FEAB222072A038507D8012303FA61
:1006400002F212F0E50F1CBF097A018601218182B6
:100650007047000080B549F69A1249F69913C9F619
:100660009912C3F6C97342F21070FFF743FE0020DF
:1006700080BD00004FEA41034FEA5353A3F5806366
:10068000D3F11E03C8BFD3F1210C0CDD4FF00042A3
:1006900042EAC12242EA505232FA03FC8CEAE17C7F
:1006A000ACEBE1707047102BC4BF0020704703F51E
:1006B000787CBCF1FF3F04D06FF0004282EA210059
:1006C000704770B500F005F849922480002070470B
:1006D000F2E70EF1020E2EF0030E5EF8046B3642C6
:1006E00005D4012A43EB030515F5001F12D8012894
:1006F00041EB010C1CF5001F0CD80ED14FEAD17C48
:100700000CEB4C0C0CF1020C15F5001F08BF4CEB68
:10071000D37C04E04FF0080C01E04FEAD37C0CEBF3
:100720004C0526FA05F606F00706B6F1040C06D2CB
:100730000EEB860CBDE870404CF0010C6047DFE822
:100740000CF0090B02024FF00041A1F500214FF01F
:10075000000070BD19461046012851EB010418BF76
:10076000D4F5001484BF002001F0004170BD0000EA
:100770009007000800000020040000002801000885
:1007800094070008080000206006000044010008EB
:0407900000A24A0475
:040000050800018965
:00000001FF
