:020000040800F2
:10000000600600206D0100087101000873010008FE
:100010007501000877010008790100080000000060
:100020000000000000000000000000007B0100084C
:100030007D010008000000007F0100088101000828
:100040008301000883010008830100088301000880
:100050008301000883010008830100088301000870
:100060008301000883010008830100088301000860
:100070008301000883010008830100088301000850
:100080008301000883010008830100088301000840
:100090008301000883010008830100088301000830
:1000A0008301000883010008830100088301000820
:1000B000830100088301000800000000830100089C
:1000C0008301000800000000000000008301000818
:1000D0000000000083010008830100080000000008
:1000E00083010008830100088301000800F002F882
:1000F00000F02CF80AA090E8000C82448344AAF196
:100100000107DA4501D100F021F8AFF2090EBAE893
:100110000F0013F0010F18BFFB1A43F0010318473B
:100120000805000018050000002300240025002613
:10013000103A28BF78C1FBD8520728BF30C148BF4A
:100140000B6070471FB51FBD10B510BD00F02DF836
:100150001146FFF7F7FF00F0EFF900F04BF803B49A
:10016000FFF7F2FF03BC00F053F800000848004717
:10017000FEE7FEE7FEE7FEE7FEE7FEE7FEE7FEE757
:10018000FEE7FEE703480449044A054B70470000B8
:10019000ED000008600000206006002060020020E2
:1001A00060020020704770477047754600F02CF8D9
:1001B000AE4605006946534620F00700854618B054
:1001C00020B5FFF7DFFFBDE820404FF000064FF0FD
:1001D00000074FF000084FF0000BAC46ACE8C00938
:1001E000ACE8C009ACE8C009ACE8C00921F00701DF
:1001F0008D46704710B50446AFF300802046BDE839
:100200001040FFF7ACBF000000487047000000201E
:1002100001491820ABBEFEE726000200704700002F
:100220002DE9F041CA7802F00F0CD30644BF8B7859
:100230004CEA030C09880B0621D0056800234FF017
:1002400001084FF00F0E002608E000BF282A08BF63
:1002500047610136082E03F104030FD008FA06F7B0
:100260000F42F6D00EFA03F425EA04040CFA03F563
:10027000482A45EA0405E9D10761EAE70560B1F5D6
:10028000807F38BFBDE8F081446800234FF4807E52
:100290004FF00F08002607E0282A08BF4761013603
:1002A000082E03F1040310D00EFA06F707EA010541
:1002B000BD42F4D108FA03F5AC430CFA03F5482A21
:1002C00044EA0504E8D10761E9E74460BDE8F0814C
:1002D00080B543F60000C4F20100202100F0C2F80E
:1002E00080BD0000002941F21801C4F202010A6831
:1002F0000CBF22EA000010430860704710B541F2BD
:100300000404C4F20204226802F00C02082A41F23A
:100310000022C0F27A021CD12368D4F800C0C3F3D3
:10032000834E5FEACC330EF1020C06D440F6001285
:10033000C0F23D020CFB02F20BE023689B0302D4E7
:100340000CFB02F205E040F60012C0F23D020CFB8D
:1003500002F20260226840F21863C2F30312C0F690
:1003600000039A5C0168D14041602268C2F3022216
:100370009A5C21FA02F282602268C2F3C2229A5C7D
:1003800040F21463D140C1602268C0F60003C2F39A
:1003900081329A5CB1FBF2F1016110BD80B500BF02
:1003A000FFF796FF0028FBD043F60000C4F20100DF
:1003B00000F0BAF880BD000070B50129B8BF70BD6B
:1003C00043F600050C46461EC4F2010516F8011F4F
:1003D000284600F0ADF8013CF8D170BD70B586B08C
:1003E000044605200121FFF77DFF4FF480400121E5
:1003F000FFF778FF4FF4806040F60005ADF8140079
:100400000420C4F2010505AE8DF8170028463146D8
:10041000FFF706FF40F20020C1F6030005902846D2
:100420003146FFF7FDFE019400204FF4402105F511
:10043000405402900391ADF8100001A9204600F04D
:1004400017F82046012100F003F806B070BD000047
:100450008289002918BF012122F4005242EA413169
:10046000818170470088084018BF01207047000054
:1004700070B586B00446008A0D46C98820F4405005
:1004800008432082A0894EF6F3110840A9882A89E2
:100490006B89084310431843A081A08AA98920F4DE
:1004A0004070084301AEA0823046FFF727FF43F6B5
:1004B000000106F10800C4F201018C4208BF06F1F8
:1004C0000C0000681922B4F90C1050432A6801236B
:1004D000B1F1FF3FC8BF022302FA03F1B0FBF1F014
:1004E00048F21F51C5F2EB11A0FB01235A096FF02E
:1004F000630302FB0300B4F90C300326B3F1FF3FA2
:10050000C8BF042600FA06F000F13200A0FB01018A
:100510004FF00700C8BF0F2000EA511040EA021058
:10052000208106B070BD000080886FF35F207047A7
:100530006FF35F21818070474FF41650FFF74EFF35
:100540000FF2B8090FF2B00A0FF2B80B2EA42CA5C7
:1005500027A62EA70FF2B80803E000BF0221FFF77D
:100560002BFFFFF7B5FE0128FBD1FFF717FFC0B245
:100570002A384D28F5D8DFE800F02A2C292E292921
:1005800029292929292929292929292929292929DB
:1005900029292929292929292929292929292929CB
:1005A00029292929292929292929292929292929BB
:1005B0002930292932292929342929292936292983
:1005C00029292938292929274046C7E7C9E709A049
:1005D000C4E74846C2E75046C0E75846BEE7204653
:1005E000BCE72846BAE73046B8E73846B6E700BF6A
:1005F0006D6D00002A2A00002D2D00002B2B00001D
:1006000068680000616100006464000073730000AA
:1006100077770000020406080000000001020304CE
:10062000010203040607080938060008000000203C
:0806300060060000280100082B
:040000050800016D81
:00000001FF
